:100000000C9451000C946E000C946E000C946E00D5
:100010000C946E000C946E000C946E000C946E00A8
:100020000C946E000C946E000C946E000C946E0098
:100030000C946E000C946E000C946E000C946E0088
:100040000C946E000C9488030C946E000C946E005B
:100050000C946E000C946E000C946E000C946E0068
:100060000C946E000C946E000C946E000C946E0058
:100070000C946E000C946E000C946E000C946E0048
:100080000C946E000C946E000C946E000C946E0038
:100090000C946E000C946E000C946E000C946E0028
:1000A000800311241FBECFEFCDBFDFE3DEBF28E208
:1000B000A0E0B8E201C01D92AE38B207E1F710E04F
:1000C000C1E5D0E004C02197FE010E94A404C03520
:1000D000D107C9F70E943E020C94B3040C940000AF
:1000E000282FFC018E2F821B861710F41192FACF55
:1000F0000895EF92FF921F93CF93DF931F92CDB796
:10010000DEB77C0164E00E947000198210E0BE013D
:100110006F5F7F4F80E098E20E941C04882389F083
:1001200089818A3039F4112339F0F701E10FF11D8B
:10013000108209C08D3029F0F701E10FF11D808395
:100140001F5F143021F7812F0F90DF91CF911F9106
:10015000FF90EF9008950F931F93CF93DF938C013F
:10016000EB01CB010E947900B801CE010E94AA04E4
:1001700021E0892B09F420E0822FDF91CF911F919C
:100180000F910895CF9380E098E20E941304882392
:10019000D1F380E098E20E940304C82F80E098E247
:1001A0000E9413048823D1F380E098E20E940304A4
:1001B0002C2F30E0322F2227A901480F511DCA01F0
:1001C000CF910895E0E0F4E080E8818386832FE317
:1001D00032E49FE0215030409040E1F700C0000041
:1001E000858382830895809344049F739093A4042D
:1001F0000895CF93C82F692F80E098E20E943604BB
:100200006C2F80E098E2CF910C9436041092400459
:100210008FE38093A20410926004E0E2F4E083E0B4
:1002200086838283E0E0F4E084E0858388E0858350
:1002300080E2858380E4858380E185838CEF8283FF
:100240000895E0E0F4E08CEF818394E0958380E111
:10025000858320E2268320E8258320E4258328E087
:10026000268396832FE73AE196E021503040904074
:10027000E1F700C000008683A0E4B4E08FEF8C9328
:10028000E0EAF4E09FE3918314961C929683E0E603
:10029000F4E080831482E0E2F4E083E086838183EB
:1002A00008951F93CF93DF93162FC0E6D4E02FEF6E
:1002B00028830E94F3001C8386E08A95F1F700C032
:1002C000E0E0F4E080E4868392E49A95F1F700C0E0
:1002D000858382E48A95F1F700C0DF91CF911F9169
:1002E0000895CF93DF93C0E6D4E018820E94F30014
:1002F000E0E2F4E093E09583A0E0B4E020E215961C
:100300002C93159786E08A95F1F700C0888516969C
:100310002C9396839FEF9883DF91CF910895E0E827
:10032000F4E097E0968394818770982B94830895E6
:10033000BF92CF92DF92EF92FF920F931F93CF93D2
:10034000DF936C01B62E80E2E82E84E0F82E03E005
:10035000F7010583C0E8D4E011E01D836AEA85E572
:1003600095E50E9451011E8365E58AEA9AE20E94A2
:1003700051011D8360EA85E595E50E945101809158
:1003800009280E948F016B2DC6010E945101F4E6DD
:10039000FA95F1F7F7010683DF91CF911F910F9145
:1003A000FF90EF90DF90CF90BF900895CF92DF92B3
:1003B000EF92FF920F931F93CF93DF936C0180E234
:1003C0008093060480E2E82E84E0F82E03E0F70133
:1003D0000583C0E8D4E011E01D836AEA85E595E570
:1003E0000E9451011E8365E58AEA9AE20E9451014A
:1003F0001D8360E885E595E50E9451011D836AEA49
:1004000085E595E50E9451011E8365E58AEA9AE239
:100410000E945101809109280E948F0160E3C6016A
:100420000E945101FFE926E881E0F1502040804020
:10043000E1F700C00000F7010683DF91CF911F9123
:100440000F91FF90EF90DF90CF900895813049F4A5
:1004500080E48093050480E2809305041092600498
:1004600006C080E2809306048FEF8093600483EFE0
:1004700091E00197F1F700C000000895CF93DF935A
:1004800000D000D0CDB7DEB788ED84BF10926100F8
:100490000E94060187E0809381048093860480E0B7
:1004A0000E948F0180E098E20E94B6032FE784E863
:1004B0009EE1215080409040E1F700C000000E9482
:1004C000E20090E2E92ECE0101960E94790080E0E0
:1004D00098E20E94FE030E9421016AE679E4CE01BF
:1004E00001960E94AA04892B09F0ACC06FE679E45A
:1004F00080E098E20E947F0410924A2810924B28D4
:10050000BE016F5F7F4F84E799E40E94AB008111C9
:1005100096C064E779E480E098E20E947F040E943C
:10052000C20080934A2890934B280E94F900BE0194
:100530006F5F7F4F89E799E40E94AB0081110EC085
:1005400069E779E480E098E20E947F0480E00E94FD
:100550002602C12CD12C00E010E013C06EE779E434
:1005600091C0070D111D80914A2890914B280817C2
:10057000190709F048C063E879E480E098E20E9436
:100580007F0480914A2890914B2808171907F0F5AD
:10059000F12C80E098E20E9413048823D1F380E0DC
:1005A00098E20E940304EF2DF0E0E65FF74D8083B0
:1005B000F394EFEFCE1ADE0AF0E4FF1639F08091E3
:1005C0004A2890914B28C816D90619F7C8019F7080
:1005D000892B19F4C8010E94D6018AE0A82E88E26E
:1005E000B82E712CC8018A5098424C01C4018A0D62
:1005F0009B1D7F1409F4B5CFF50161915F010E9445
:1006000098017394F3CF6FE679E4B7CF68E879E4A3
:1006100080E098E20E947F0481E00E94260200E0D0
:1006200010E0C8010E947101682F80E098E20E94EA
:1006300036040F5F1F4F0031110599F751C06DE867
:1006400079E420C062E979E4CE0101960E94AA040F
:10065000892BE9F46FE679E480E098E20E947F0458
:1006600000E010E0C8010E94D60167E979E480E06B
:1006700098E20E947F04105F0115F0E41F0791F7D4
:100680006CE979E480E098E20E947F042BC061EA83
:1006900079E4CE0101960E94AA04892B09F05ECF6D
:1006A0006FE679E480E098E20E947F040E94C20035
:1006B0006C010E94F90081E00E94260200E010E037
:1006C000C601800F911F0E947101682F80E098E29F
:1006D0000E9436040F5F1F4F011521E0120781F7BA
:1006E000E092060464E0CE0101960E94700080E072
:1006F00098E20E94FE030E9406010E94E200E3CEFF
:1007000040E056E960E070E080E098E20C94AB03D2
:100710001F920F920FB60F9211248F939F93EF9316
:10072000FF9380914D2890910008E82FF0E0E25B64
:10073000F74D90838F5F803419F080934D2802C06D
:1007400010924D28FF91EF919F918F910F900FBEC6
:100750000F901F901895FC014083518383E08283A2
:10076000148215821682108617820895CF93DF9324
:10077000EC01F89428813981C901A0E0B0E09C0126
:10078000AD0184E0220F331F441F551F8A95D1F716
:10079000DA01C901B695A79597958795BC01CD015A
:1007A000705C844B934B0E948204E0E0F8E0208769
:1007B00031878D8140E1849F900111249C8148E024
:1007C000949FC0011124822B9A81892B8783A0E0FA
:1007D000B4E081E011968C93119792E012969C936D
:1007E00090EC968390E895838E8310924C2810921B
:1007F0004D28789480E0DF91CF91089510924C2895
:1008000010924D28089590914C28E92FF0E0E25B7A
:10081000F74D80819F5F903419F090934C28089594
:1008200010924C28089581E020914D2890914C28F9
:10083000291301C080E00895E0914C2880914D2853
:100840008E1791F0F0E0E25BF74D8081FB01808331
:1008500080914C288F5F803419F080934C2802C01F
:1008600010924C2881E0089580E00895809104085A
:1008700085FFFCCF6093020887EA91E60197F1F7C4
:1008800000C0000080E00895EF92FF920F931F9345
:10089000CF93DF93FB012081222339F1E42E8B01DA
:1008A000EC01F12CF801EF0DF11D6081CE010E94E9
:1008B0003604F394F801EF0DF11D80818111F2CF20
:1008C000EE2059F08885882321F06DE0CE010E944A
:1008D00036046AE0CE010E9436048F81882339F005
:1008E00060E0CE010E94360402C086E001C080E0D4
:1008F000DF91CF911F910F91FF90EF90089540E00D
:100900000C944404A1E21A2EAA1BBB1BFD010DC0CE
:10091000AA1FBB1FEE1FFF1FA217B307E407F507AF
:1009200020F0A21BB30BE40BF50B661F771F881F8B
:10093000991F1A9469F760957095809590959B0121
:10094000AC01BD01CF010895EE0FFF1F0590F4919A
:10095000E02D0994FB01DC018D91019080190110BB
:0A096000D9F3990B0895F894FFCF26
:10096A004255524E0041434B4E0053495A45005797
:10097A00464C53002A45525200454F4454005652A1
:10098A004659005345525200434C52460053454380
:0C099A005400444F4E45005245414400BB
:00000001FF
