:100000000C9451000C946E000C946E000C946E00D5
:100010000C946E000C946E000C946E000C946E00A8
:100020000C946E000C946E000C946E000C946E0098
:100030000C946E000C946E000C946E000C946E0088
:100040000C946E000C9468030C946E000C946E007B
:100050000C946E000C946E000C946E000C946E0068
:100060000C946E000C946E000C946E000C946E0058
:100070000C946E000C946E000C946E000C946E0048
:100080000C946E000C946E000C946E000C946E0038
:100090000C946E000C946E000C946E000C946E0028
:1000A000600311241FBECFEFCDBFDFE3DEBF28E228
:1000B000A0E0B8E201C01D92AD38B207E1F710E050
:1000C000C1E5D0E004C02197FE010E948404C03540
:1000D000D107C9F70E9429020C9493040C940000E4
:1000E000282FFC018E2F821B861710F41192FACF55
:1000F0000895EF92FF921F93CF93DF931F92CDB796
:10010000DEB77C0164E00E947000198210E0BE013D
:100110006F5F7F4F80E098E20E94FC03882389F0A4
:1001200089818A3039F4112339F0F701E10FF11D8B
:10013000108209C08D3029F0F701E10FF11D808395
:100140001F5F143021F7812F0F90DF91CF911F9106
:10015000FF90EF9008950F931F93CF93DF938C013F
:10016000EB01CB010E947900B801CE010E948A0404
:1001700021E0892B09F420E0822FDF91CF911F919C
:100180000F910895CF9380E098E20E94F3038823B3
:10019000D1F380E098E20E94E303C82F80E098E268
:1001A0000E94F3038823D1F380E098E20E94E303E6
:1001B0002C2F30E0322F2227A901480F511DCA01F0
:1001C000CF910895E0E0F4E080E8818386832FE317
:1001D0003DE093E0215030409040E1F700C0000046
:1001E000858382830895809344049F739093A4042D
:1001F0000895CF93C82F692F80E098E20E941604DB
:100200006C2F80E098E2CF910C9416041092400479
:100210008FE38093A20410926004E0E2F4E083E0B4
:1002200086838283E0E0F4E084E0858388E0858350
:1002300080E2858380E8858380E4858380E185830F
:100240008CEF82830C94E200E0E0F4E08CEF818399
:1002500094E0958380E1858320E2268320E825834E
:1002600020E4258328E0268396832FE73AE196E071
:10027000215030409040E1F700C000008683A0E4A8
:10028000B4E08FEF8C93E0EAF4E09FE3918314965F
:100290001C929683E0E6F4E080831482E0E2F4E0CE
:1002A00083E0868381830895CF93C62F0E94F30055
:1002B000C093640489EF90E00197F1F700C000005B
:1002C000E0E0F4E080E48683A9EFB0E01197F1F775
:1002D00000C00000858389EF90E00197F1F700C02E
:1002E0000000CF9108950F931F93CF938C01C62FD9
:1002F00083E08093250480E2809306046AEA85E522
:1003000095E50E94540165E58AEA9AE20E9454014B
:1003100060EA85E595E50E9454016C2FC8010E94B2
:10032000540110926004C8010E94F300C07821E1DA
:1003300037E22150310951F48FEF8093600483E05C
:1003400080932604CF911F910F91089586E08A959E
:10035000F1F700C08091680480788C13EACFECCF6D
:100360000E94F300E0E2F4E093E09583A9EFB0E0AF
:100370001197F1F700C000008091680496830895FA
:10038000CF93DF93EC0183E08093250480E2809398
:1003900006046AEA85E595E50E94540165E58AEA66
:1003A0009AE20E94540160E885E595E50E945401B7
:1003B0006AEA85E595E50E94540165E58AEA9AE2D4
:1003C0000E94540160E3CE010E9454011092600427
:1003D000CE010E94F30041EA56E861E070E041502E
:1003E00051096109710949F48FEF8093600483E03A
:1003F00080932604DF91CF91089582E48A95F1F7E6
:1004000000C09091680480916804892786FDE7CF39
:10041000EBCFE0E8F4E09481987F8770892B8483A8
:100420000895813049F480E48093050480E280934C
:1004300005041092600406C080E2809306048FEFEA
:100440008093600483EF91E00197F1F700C0000012
:100450000895CF93DF9300D000D0CDB7DEB788EDFD
:1004600084BF109261000E94060187E0809381049E
:100470008093860480E00E94090280E098E20E9456
:10048000960390E2E92ECE0101960E94790080E069
:1004900098E20E94DE030E9424016AE279E4CE0120
:1004A00001960E948A04892B09F0ACC06FE279E4BE
:1004B00080E098E20E945F041092492810924A2836
:1004C000BE016F5F7F4F84E399E40E94AB0081110E
:1004D00096C064E379E480E098E20E945F040E94A1
:1004E000C2008093492890934A280E94F900BE01D7
:1004F0006F5F7F4F89E399E40E94AB0081110EC0CA
:1005000069E379E480E098E20E945F0480E00E9461
:100510001102C12CD12C00E010E013C06EE379E48D
:1005200091C0070D111D8091492890914A28081704
:10053000190709F048C063E479E480E098E20E947A
:100540005F048091492890914A2808171907F0F50F
:10055000F12C80E098E20E94F3038823D1F380E03D
:1005600098E20E94E303EF2DF0E0E75FF74D808310
:10057000F3948FEFC81AD80A90E4F91639F08091F5
:10058000492890914A28C816D90619F7C8019F70C2
:10059000892B19F4C8010E94C00189E0A82E88E2C5
:1005A000B82E712CF801E950F8424F01C4018A0DB0
:1005B0009B1D7F1409F4B5CFF50161915F010E9485
:1005C00073017394F3CF6FE279E4B7CF68E479E411
:1005D00080E098E20E945F0481E00E94110200E046
:1005E00010E0C8010E94B001682F80E098E20E94EC
:1005F00016040F5F1F4F0031110599F751C06DE4CC
:1006000079E420C062E579E4CE0101960E948A0473
:10061000892BE9F46FE279E480E098E20E945F04BC
:1006200000E010E0C8010E94C00167E579E480E0C5
:1006300098E20E945F04105F0115F0E41F0791F734
:100640006CE579E480E098E20E945F042BC061E6EB
:1006500079E4CE0101960E948A04892B09F05ECFCD
:100660006FE279E480E098E20E945F040E94C20099
:100670006C010E94F90081E00E94110200E010E08C
:10068000C601800F911F0E94B001682F80E098E2A0
:100690000E9416040F5F1F4F011581E0180781F7B4
:1006A000E092060464E0CE0101960E94700080E0B2
:1006B00098E20E94DE030E9406010E94E200E3CE5F
:1006C00040E056E960E070E080E098E20C948B0333
:1006D0001F920F920FB60F9211248F939F93EF9357
:1006E000FF9380914C2890910008E82FF0E0E35BA5
:1006F000F74D90838F5F803419F080934C2802C0AF
:1007000010924C28FF91EF919F918F910F900FBE07
:100710000F901F901895FC014083518383E08283E2
:10072000148215821682108617820895CF93DF9364
:10073000EC01F89428813981C901A0E0B0E09C0166
:10074000AD0184E0220F331F441F551F8A95D1F756
:10075000DA01C901B695A79597958795BC01CD019A
:10076000705C844B934B0E946204E0E0F8E02087C9
:1007700031878D8140E1849F900111249C8148E064
:10078000949FC0011124822B9A81892B8783A0E03A
:10079000B4E081E011968C93119792E012969C93AD
:1007A00090EC968390E895838E8310924B2810925C
:1007B0004C28789480E0DF91CF91089510924B28D7
:1007C00010924C28089590914B28E92FF0E0E35BBC
:1007D000F74D80819F5F903419F090934B280895D6
:1007E00010924B28089581E020914C2890914B283D
:1007F000291301C080E00895E0914B2880914C2896
:100800008E1791F0F0E0E35BF74D8081FB01808370
:1008100080914B288F5F803419F080934B2802C061
:1008200010924B2881E0089580E00895809104089B
:1008300085FFFCCF6093020887EA91E60197F1F704
:1008400000C0000080E00895EF92FF920F931F9385
:10085000CF93DF93FB012081222339F1E42E8B011A
:10086000EC01F12CF801EF0DF11D6081CE010E9429
:100870001604F394F801EF0DF11D80818111F2CF80
:10088000EE2059F08885882321F06DE0CE010E948A
:1008900016046AE0CE010E9416048F81882339F085
:1008A00060E0CE010E94160402C086E001C080E034
:1008B000DF91CF911F910F91FF90EF90089540E04D
:1008C0000C942404A1E21A2EAA1BBB1BFD010DC02F
:1008D000AA1FBB1FEE1FFF1FA217B307E407F507F0
:1008E00020F0A21BB30BE40BF50B661F771F881FCC
:1008F000991F1A9469F760957095809590959B0162
:10090000AC01BD01CF010895EE0FFF1F0590F491DA
:10091000E02D0994FB01DC018D91019080190110FB
:0A092000D9F3990B0895F894FFCF66
:10092A004255524E0041434B4E0053495A450057D7
:10093A00464C53002A45525200454F4454005652E1
:10094A004659005345525200434C524600534543C0
:0C095A005400444F4E45005245414400FB
:00000001FF
