:100000000C9451000C946E000C946E000C946E00D5
:100010000C946E000C946E000C946E000C946E00A8
:100020000C946E000C946E000C946E000C946E0098
:100030000C946E000C946E000C946E000C946E0088
:100040000C946E000C9421040C946E000C946E00C1
:100050000C946E000C946E000C946E000C946E0068
:100060000C946E000C946E000C946E000C946E0058
:100070000C946E000C946E000C946E000C946E0048
:100080000C946E000C946E000C946E000C946E0038
:100090000C946E000C946E000C946E000C946E0028
:1000A000190411241FBECFEFCDBFDFE3DEBF28E26E
:1000B000A0E0B8E201C01D92AE38B207E1F710E04F
:1000C000C1E5D0E004C02197FE010E943B05C03588
:1000D000D107C9F70E9475020C944A050C940000E0
:1000E000FC019E2F981B961708F008951192F9CFE6
:1000F000EF92FF921F93CF93DF930F92CDB7DEB7AE
:100100007C0165E00E947000198210E0BE016F5F03
:100110007F4F80E098E20E94A7048115E9F0898171
:100120008A3081F4111581F0F701E10FF11D108281
:10013000F7011482812F0F90DF91CF911F91FF90D3
:10014000EF9008958D3011F3F701E10FF11D8083D9
:100150001F5F1430D9F6ECCF87E893E10197F1F7F0
:1001600000C00000D3CFCF93DF9300D000D0CDB735
:10017000DEB78B839C8369837A83CB010E947800EE
:100180006B817C8189819A810E9441059C0181E07B
:10019000232B09F480E02496CDBFDEBFDF91CF9101
:1001A0000895CF93DF9300D000D00F92CDB7DEB784
:1001B0008A839B8380E197E28C839D8380E098E231
:1001C0000E949E048983811571F080E098E20E946C
:1001D0008F04EA81FB81808389812596CDBFDEBFB4
:1001E000DF91CF910895F6E0FA95F1F700C08C8188
:1001F0009D8101978C839D83892B01F7EDCF1F9300
:10020000CF93DF9300D0CDB7DEB712E080E098E265
:100210000E949E048115D1F3115080E098E20E9463
:100220008F04FE013196E10FF11D80831111EECF95
:1002300089819A810F900F90DF91CF911F9108953E
:10024000E0E0F4E080E8818386832FE332E49FE0FE
:10025000215030409040E1F700C000008583828348
:100260000895809344049F739093A4040895CF93BA
:10027000DF930F92CDB7DEB78983692F80E098E2D4
:100280000E94C204698180E098E20F90DF91CF91D3
:100290000C94C204109240048FE38093A204109245
:1002A0006004E0E2F4E083E086838283E0E08CEFA8
:1002B000828384E0858388E0858380E2858380E48F
:1002C000858380E185830895E0E0F4E08CEF81830D
:1002D00094E0958380E1858320E2268320E82583CE
:1002E00020E4258328E0268396832FE73AE196E0F1
:1002F000215030409040E1F700C000008683A0E428
:10030000B4E08FEF8C93E0EA9FE39183A4E41C9226
:100310009683E0E680831482E0E283E08683818333
:1003200008950F931F93CF93C62F00E614E02FEF8D
:10033000F80120830E943101F801C483F6E0FA95A8
:10034000F1F700C0E0E0F4E080E4868392E49A955F
:10035000F1F700C08583E2E4EA95F1F700C0CF91A0
:100360001F910F910895CF93DF93C0E6D4E01882D8
:100370000E943101E0E2F4E093E09583A5E0B4E06F
:1003800020E22D9386E08A95F1F700C088852C93B2
:1003900096839FEF9883DF91CF910895E0E8F4E092
:1003A00087E086838481909109289770892B8483C4
:1003B00008950F931F93CF93DF9300D00F92CDB783
:1003C000DEB789839A836B8303E00093250411E0F1
:1003D000109385046AEA85E595E50E9491011093E2
:1003E000860465E58AEA9AE20E94910110938504E9
:1003F00060EA85E595E50E9491010E94CE016B813E
:1004000089819A810E94910184E68A95F1F700938F
:1004100026040F900F900F90DF91CF911F910F91B5
:1004200008950F931F93CF93DF9300D0CDB7DEB71E
:1004300089839A8380E28093060403E00093250475
:1004400011E0109385046AEA85E595E50E94910123
:100450001093860465E58AEA9AE20E94910110935E
:10046000850460E885E595E50E9491011093850477
:100470006AEA85E595E50E9491011093860465E599
:100480008AEA9AE20E9491010E94CE0160E389818A
:100490009A810E9491012FE986E891E021508040E5
:1004A0009040E1F700C00000009326040F900F90E9
:1004B000DF91CF911F910F910895813079F480E4FD
:1004C0008093050480E2809305041092600483EF1A
:1004D00091E00197F1F700C00000089580E2809359
:1004E00006048FEF80936004F2CFCDB7DEB7289774
:1004F000CDBFDEBF88ED84BF109261000E944A012B
:1005000087E080938104809386040E94CE0180E07E
:1005100098E20E944B042FE734E88EE121503040EE
:100520008040E1F700C000000E9420017E019FEFA3
:10053000E91AF90A30E2532EC7010E94780080E0E0
:1005400098E20E948A040E9464016DEE7AE4C70179
:100550000E944105EF82F886892B09F0B5C068E951
:100560007AE480E098E20E94160510924A281092E0
:100570004B28B7018DE99AE40E94B3008111A1C014
:100580006DE97AE480E098E20E9416050E94FF007F
:1005900080934A2890934B280E943701B70182EA42
:1005A0009AE40E94B30081112EC062EA7AE480E0EE
:1005B00098E20E94160580E00E945D02A12CB12CF9
:1005C000850180914A2890914B280817190720F13E
:1005D00061EB7AE480E098E20E94160581E00E94D7
:1005E0005D0200E010E0C8010E94B301682F80E0C6
:1005F00098E20E94C2040F5F1F4F0031110599F766
:100600005092060480C067EA7AE480E098E20E9493
:10061000160579C0D22E24C09AE0892E98E2992E30
:10062000D12C80E098E20E949E048115D1F380E0F5
:1006300098E20E948F04F4018083CC24C394CD0CF3
:10064000FFEFAF1ABF0A2FE3D21621F33FEF831A51
:10065000930A80914A2890914B288A159B0579F539
:10066000C8019F70892B19F4C8010E9411028AE009
:10067000882E88E2982E3801F40161914F01C30160
:100680000E94D901FFEF6F1A7F0A882D2AE038E215
:10069000821B8C1588F30F5F1F4F0D0D111D80916C
:1006A0004A2890914B286CEA7AE48017910711F060
:1006B00068E97AE480E098E20E94160582CFDC2C9B
:1006C000B0CF66EB7AE4A1CF6BEB7AE4C7010E946E
:1006D0004105892B49F568E97AE480E098E20E94B7
:1006E00016051E82CE0106960E94D1008115C9F022
:1006F00060EC7AE480E098E20E9416058E81809397
:1007000009280E94CE0165E08F8198850E947000C3
:1007100080E098E20E948A040E944A010E9420011F
:100720000BCF65EC7AE471CF6AEC7AE4C7010E94E2
:100730004105892BC9F468E97AE480E098E20E94D7
:10074000160500E010E0C8010E9411026FEC7AE487
:1007500080E098E20E941605105F011530E413074F
:1007600091F764ED7AE451CF69ED7AE4C7010E9414
:100770004105892B09F568E97AE480E098E20E9456
:1007800016050E94FF006C010E94370181E00E9463
:100790005D0200E010E0C601800F911F0E94B301CE
:1007A000682F80E098E20E94C2040F5F1F4F01157E
:1007B00081E0180781F724CF6EED7AE4C7010E942B
:1007C000410568EE7AE4892B09F01FCF68E97AE4E5
:1007D00080E098E20E941605C12CD12C63EE7AE4E9
:1007E00080E098E20E941605860190E4C90ED11CB3
:1007F000C8010E94B301682F80E098E20E94C20401
:100800000F5F1F4F0C151D0599F76F81788588E9DB
:100810009AE40E94B300811109C00115E0E41E07AB
:1008200019F46CEA7AE4F1CE6801D8CF62EF7AE489
:10083000ECCE40E056E960E070E080E098E20C9495
:1008400040042F932FB72F938F939F93EF93FF9392
:1008500080914D28E82FF0E02091000891E0980F5A
:100860008F3309F490E0E25BF74D208390934D289D
:10087000FF91EF919F918F912F912FBF2F911895FD
:10088000FC014083518383E08283148215821682A7
:10089000108617820895CF93DF93EC01F894288196
:1008A000398140E050E084E0220F331F441F551F80
:1008B0008A95D1F7C901DA01B695A79597958795DD
:1008C000BC01CD01705C844B934B0E941905E0E0A4
:1008D000F8E0208731878C81880F880F880F9D81F1
:1008E0009295907F892B9A81892B8783A1E0B4E030
:1008F00081E08D9392E09C9390EC968390E89583B1
:100900008E8310924C2810924D28789480E0DF91CD
:10091000CF91089510924C2810924D2808959091EF
:100920004C28E92FF0E0E25BF74D808121E0290FB0
:100930009F3309F420E020934C28089581E0209112
:100940004D2890914C28291301C080E00895E09132
:100950004C2880914D288E1799F0F0E0E25BF74D1E
:100960008081FB01808380914C2891E0980F8F3328
:1009700021F090934C2881E0089510924C28FBCFF1
:1009800080E008958091040885FFFCCF6093020801
:1009900087EA91E60197F1F700C0000080E0089532
:1009A000EF92FF920F931F93CF93DF9300D00F929C
:1009B000CDB7DEB78C017B014983FB01F081FA835F
:1009C000F11589F11B826A81C8010E94C2048B81E2
:1009D0008F5F8B83F701E80FF11D80818A8381117E
:1009E000F2CFE981E11561F0F8018085811521F0F0
:1009F0006DE0C8010E94C2046AE0C8010E94C204FE
:100A0000F8018781811521F060E0C8010E94C204CD
:100A10008A810F900F900F90DF91CF911F910F91CE
:100A2000FF90EF900895F6E0FA83F2CF40E00C9447
:100A3000D004A1E21A2EAA1BBB1BFD010DC0AA1FE8
:100A4000BB1FEE1FFF1FA217B307E407F50720F037
:100A5000A21BB30BE40BF50B661F771F881F991FB2
:100A60001A9469F760957095809590959B01AC01FB
:100A7000BD01CF010895EE0FFF1F0590F491E02D09
:100A80000994FB01DC018D91019080190110D9F3CB
:080A9000990B0895F894FFCFC3
:100A980041434B4E0053495A450057464C53004575
:100AA80057464C0046454F44005652465900455358
:100AB800495A0042414E4B00425345540045425466
:100AC8005200434C5246005345435400444F4E4550
:100AD80000524541440043484B520050434B4700A5
:0F0AE80045434D44004255524E004541434B009B
:00000001FF
