:100000000C9451000C946E000C946E000C946E00D5
:100010000C946E000C946E000C946E000C946E00A8
:100020000C946E000C946E000C946E000C946E0098
:100030000C946E000C946E000C946E000C946E0088
:100040000C946E000C9476030C946E000C946E006D
:100050000C946E000C946E000C946E000C946E0068
:100060000C946E000C946E000C946E000C946E0058
:100070000C946E000C946E000C946E000C946E0048
:100080000C946E000C946E000C946E000C946E0038
:100090000C946E000C946E000C946E000C946E0028
:1000A0006E0311241FBECFEFCDBFDFE3DEBF28E21A
:1000B000A0E0B8E201C01D92AD38B207E1F710E050
:1000C000C1E5D0E004C02197FE010E949204C03532
:1000D000D107C9F70E942F020C94A1040C940000D0
:1000E000282FFC018E2F821B861710F41192FACF55
:1000F0000895EF92FF921F93CF93DF931F92CDB796
:10010000DEB77C0164E00E947000198210E0BE013D
:100110006F5F7F4F80E098E20E940A04882389F095
:1001200089818A3039F4112339F0F701E10FF11D8B
:10013000108209C08D3029F0F701E10FF11D808395
:100140001F5F143021F7812F0F90DF91CF911F9106
:10015000FF90EF9008950F931F93CF93DF938C013F
:10016000EB01CB010E947900B801CE010E949804F6
:1001700021E0892B09F420E0822FDF91CF911F919C
:100180000F910895CF9380E098E20E9401048823A4
:10019000D1F380E098E20E94F103C82F80E098E25A
:1001A0000E9401048823D1F380E098E20E94F103C9
:1001B0002C2F30E0322F2227A901480F511DCA01F0
:1001C000CF910895E0E0F4E080E8818386832FE317
:1001D00032E49FE0215030409040E1F700C0000041
:1001E000858382830895809344049F739093A4042D
:1001F0000895CF93C82F692F80E098E20E942404CD
:100200006C2F80E098E2CF910C942404109240046B
:100210008FE38093A20410926004E0E2F4E083E0B4
:1002200086838283E0E0F4E084E0858388E0858350
:1002300080E2858380E4858380E185838CEF8283FF
:100240000895E0E0F4E08CEF818394E0958380E111
:10025000858320E2268320E8258320E4258328E087
:10026000268396832FE73AE196E021503040904074
:10027000E1F700C000008683A0E4B4E08FEF8C9328
:10028000E0EAF4E09FE3918314961C929683E0E603
:10029000F4E080831482E0E2F4E083E086838183EB
:1002A00008951F93CF93DF93162FC0E6D4E02FEF6E
:1002B00028830E94F3001C8386E08A95F1F700C032
:1002C000E0E0F4E080E4868392E49A95F1F700C0E0
:1002D000858382E48A95F1F700C0DF91CF911F9169
:1002E0000895BF92CF92DF92EF92FF920F931F93E8
:1002F000CF93DF936C01B62E80E2E82E84E0F82ED7
:1003000003E0F7010583C0E8D4E011E01D836AEA49
:1003100085E595E50E9451011E8365E58AEA9AE22A
:100320000E9451011D8360EA85E595E50E94510117
:100330001E836B2DC6010E945101F4E6FA95F1F778
:10034000F7010683DF91CF911F910F91FF90EF90FE
:10035000DF90CF90BF900895CF93DF93C0E6D4E0B5
:1003600018820E94F300E0E2F4E093E09583A0E0BD
:10037000B4E020E215962C93159786E08A95F1F764
:1003800000C0888516962C9396839FEF9883DF9103
:10039000CF910895CF92DF92EF92FF920F931F9328
:1003A000CF93DF936C0180E28093060480E2E82E15
:1003B00084E0F82E03E0F7010583C0E8D4E011E003
:1003C0001D836AEA85E595E50E9451011E8365E576
:1003D0008AEA9AE20E9451011D8360E885E595E56D
:1003E0000E9451011D836AEA85E595E50E9451014D
:1003F0001E8365E58AEA9AE20E9451011E8360E34A
:10040000C6010E945101FFE926E881E0F150204039
:100410008040E1F700C00000F7010683DF91CF9133
:100420001F910F91FF90EF90DF90CF900895813052
:1004300049F480E48093050480E2809305041092DF
:10044000600406C080E2809306048FEF809360040E
:1004500083EF91E00197F1F700C000000895CF937A
:10046000DF9300D000D0CDB7DEB788ED84BF109207
:1004700061000E94060187E08093810480938604D6
:100480008093860480E098E20E94A4032FE784E82A
:100490009EE1215080409040E1F700C000000E94A2
:1004A000E20090E2E92ECE0101960E94790080E000
:1004B00098E20E94EC030E94210166E479E4CE01F7
:1004C00001960E949804892B09F0ACC06BE479E492
:1004D00080E098E20E946D041092492810924A2808
:1004E000BE016F5F7F4F80E599E40E94AB008111F0
:1004F00096C060E579E480E098E20E946D040E9475
:10050000C2008093492890934A280E94F900BE01B6
:100510006F5F7F4F85E599E40E94AB0081110EC0AB
:1005200065E579E480E098E20E946D0480E00E9435
:100530001702C12CD12C00E010E013C06AE579E469
:1005400091C0070D111D8091492890914A280817E4
:10055000190709F048C06FE579E480E098E20E944D
:100560006D048091492890914A2808171907F0F5E1
:10057000F12C80E098E20E9401048823D1F380E00E
:1005800098E20E94F103EF2DF0E0E75FF74D8083E2
:10059000F394EFEFCE1ADE0AF0E4FF1639F0809103
:1005A000492890914A28C816D90619F7C8019F70A2
:1005B000892B19F4C8010E94CA0189E0A82E88E29B
:1005C000B82E712CC801895098424C01C4018A0D83
:1005D0009B1D7F1409F4B5CFF50161915F010E9465
:1005E00071017394F3CF6BE479E4B7CF64E679E4F7
:1005F00080E098E20E946D0481E00E94170200E012
:1006000010E0C8010E94AC01682F80E098E20E94CF
:1006100024040F5F1F4F0031110599F751C069E69F
:1006200079E420C06EE679E4CE0101960E94980438
:10063000892BE9F46BE479E480E098E20E946D0490
:1006400000E010E0C8010E94CA0163E779E480E09D
:1006500098E20E946D04105F0115F0E41F0791F706
:1006600068E779E480E098E20E946D042BC06DE7B2
:1006700079E4CE0101960E949804892B09F05ECF9F
:100680006BE479E480E098E20E946D040E94C2006D
:100690006C010E94F90081E00E94170200E010E066
:1006A000C601800F911F0E94AC01682F80E098E284
:1006B0000E9424040F5F1F4F011521E0120781F7EC
:1006C000E092060464E0CE0101960E94700080E092
:1006D00098E20E94EC030E940601E5CE40E056E954
:1006E00060E070E080E098E20C9499031F920F9212
:1006F0000FB60F9211248F939F93EF93FF938091E6
:100700004C2890910008E82FF0E0E35BF74D9083D0
:100710008F5F803419F080934C2802C010924C28CF
:10072000FF91EF919F918F910F900FBE0F901F90AF
:100730001895FC014083518383E0828314821582E3
:100740001682108617820895CF93DF93EC01F894F8
:1007500028813981C901A0E0B0E09C01AD0184E0AD
:10076000220F331F441F551F8A95D1F7DA01C901A3
:10077000B695A79597958795BC01CD01705C844B84
:10078000934B0E947004E0E0F8E0208731878D8170
:1007900040E1849F900111249C8148E0949FC00116
:1007A0001124822B9A81892B8783A0E0B4E081E019
:1007B00011968C93119792E012969C9390EC9683ED
:1007C00090E895838E8310924B2810924C28789451
:1007D00080E0DF91CF91089510924B2810924C2821
:1007E000089590914B28E92FF0E0E35BF74D80816D
:1007F0009F5F903419F090934B28089510924B28E6
:10080000089581E020914C2890914B28291301C034
:1008100080E00895E0914B2880914C288E1791F04C
:10082000F0E0E35BF74D8081FB01808380914B28F2
:100830008F5F803419F080934B2802C010924B28B0
:1008400081E0089580E008958091040885FFFCCF41
:100850006093020887EA91E60197F1F700C0000073
:1008600080E00895EF92FF920F931F93CF93DF9351
:10087000FB012081222339F1E42E8B01EC01F12CC4
:10088000F801EF0DF11D6081CE010E942404F39464
:10089000F801EF0DF11D80818111F2CFEE2059F0AA
:1008A0008885882321F06DE0CE010E9424046AE04F
:1008B000CE010E9424048F81882339F060E0CE01AC
:1008C0000E94240402C086E001C080E0DF91CF9145
:1008D0001F910F91FF90EF90089540E00C94320427
:1008E000A1E21A2EAA1BBB1BFD010DC0AA1FBB1F34
:1008F000EE1FFF1FA217B307E407F50720F0A21BA6
:10090000B30BE40BF50B661F771F881F991F1A9412
:1009100069F760957095809590959B01AC01BD013C
:10092000CF010895EE0FFF1F0590F491E02D09947B
:10093000FB01DC018D91019080190110D9F3990B15
:060940000895F894FFCFBA
:100946004255524E0041434B4E0053495A450057BB
:10095600464C53002A45525200454F4454005652C5
:100966004659005345525200434C524600534543A4
:0C0976005400444F4E45005245414400DF
:00000001FF
