:100000000C9451000C946E000C946E000C946E00D5
:100010000C946E000C946E000C946E000C946E00A8
:100020000C946E000C946E000C946E000C946E0098
:100030000C946E000C946E000C946E000C946E0088
:100040000C946E000C9411040C946E000C946E00D1
:100050000C946E000C946E000C946E000C946E0068
:100060000C946E000C946E000C946E000C946E0058
:100070000C946E000C946E000C946E000C946E0048
:100080000C946E000C946E000C946E000C946E0038
:100090000C946E000C946E000C946E000C946E0028
:1000A000090411241FBECFEFCDBFDFE3DEBF28E27E
:1000B000A0E0B8E201C01D92AE38B207E1F710E04F
:1000C000C1E5D0E004C02197FE010E942D05C03596
:1000D000D107C9F70E9466020C943C050C940000FD
:1000E000282FFC018E2F821B861710F41192FACF55
:1000F0000895EF92FF921F93CF93DF931F92CDB796
:10010000DEB77C0165E00E947000198210E0BE013C
:100110006F5F7F4F80E098E20E94A504882391F0F2
:1001200089818A3039F4112339F0F701E10FF11D8B
:10013000108210C08D3061F0F701E10FF11D808356
:100140001F5F06C087E893E10197F1F700C0000048
:100150001430E9F6F7011482812F0F90DF91CF91CF
:100160001F91FF90EF9008950F931F93CF93DF930C
:100170008C01EB01CB010E947900B801CE010E94F5
:10018000330521E0892B09F420E0822FDF91CF9104
:100190001F910F9108950F931F93CF93DF938C01BD
:1001A000C0E1D7E280E098E20E949C04882341F0FD
:1001B00080E098E20E948C04F801808381E007C00F
:1001C000F6E0FA95F1F700C0219761F780E0DF9142
:1001D000CF911F910F910895CF9380E098E20E94F4
:1001E0009C048823D1F380E098E20E948C04C82FFD
:1001F00080E098E20E949C048823D1F380E098E29A
:100200000E948C042C2F30E0322F2227A901480FA6
:10021000511DCA01CF910895E0E0F4E080E88183A8
:1002200086832FE332E49FE0215030409040E1F795
:1002300000C00000858382830895809344049F73E7
:100240009093A4040895CF93C82F692F80E098E27B
:100250000E94BF046C2F80E098E2CF910C94BF0401
:10026000109240048FE38093A20410926004E0E2B5
:10027000F4E083E086838283E0E0F4E08CEF828325
:1002800084E0858388E0858380E2858380E48583BC
:1002900080E185830895E0E0F4E08CEF818394E0D1
:1002A000958380E1858320E2268320E8258320E46E
:1002B000258328E0268396832FE73AE196E02150B4
:1002C00030409040E1F700C000008683A0E4B4E035
:1002D0008FEF8C93E0EAF4E09FE3918314961C92F5
:1002E0009683E0E6F4E080831482E0E2F4E083E0C9
:1002F0008683818308951F93CF93DF93162FC0E6E3
:10030000D4E02FEF28830E941D011C8386E08A958C
:10031000F1F700C0E0E0F4E080E4868392E49A958F
:10032000F1F700C0858382E48A95F1F700C0DF9180
:10033000CF911F910895CF93DF93C0E6D4E0188248
:100340000E941D01E0E2F4E093E09583A0E0B4E0B8
:1003500020E215962C93159786E08A95F1F700C058
:10036000888516962C9396839FEF9883DF91CF9183
:100370000895E0E8F4E087E086839481809109287D
:100380008770892B84830895BF92CF92DF92EF927A
:10039000FF920F931F93CF93DF936C01B62E80E2F1
:1003A000E82E84E0F82E03E0F7010583C0E8D4E0EE
:1003B00011E01D836AEA85E595E50E947B011E83B5
:1003C00065E58AEA9AE20E947B011D8360EA85E581
:1003D00095E50E947B010E94B9016B2DC6010E9428
:1003E0007B01F4E6FA95F1F7F7010683DF91CF91EF
:1003F0001F910F91FF90EF90DF90CF90BF900895E5
:10040000CF92DF92EF92FF920F931F93CF93DF93E0
:100410006C0180E28093060480E2E82E84E0F82EEE
:1004200003E0F7010583C0E8D4E011E01D836AEA28
:1004300085E595E50E947B011E8365E58AEA9AE2DF
:100440000E947B011D8360E885E595E50E947B01A4
:100450001D836AEA85E595E50E947B011E8365E5BB
:100460008AEA9AE20E947B010E94B90160E3C60118
:100470000E947B01FFE926E881E0F15020408040A6
:10048000E1F700C00000F7010683DF91CF911F91D3
:100490000F91FF90EF90DF90CF900895813049F455
:1004A00080E48093050480E2809305041092600448
:1004B00006C080E2809306048FEF8093600483EF90
:1004C00091E00197F1F700C000000895CF93DF930A
:1004D000CDB7DEB72697CDBFDEBF88ED84BF1092C3
:1004E00061000E94300187E080938104809386043C
:1004F0000E94B90180E098E20E943F042FE784E85F
:100500009EE1215080409040E1F700C000000E9431
:100510000C0190E2E92ECE0101960E94790080E064
:1005200098E20E9487040E944B016CE77AE4CE01B6
:1005300001960E943305892B09F0ACC061E87AE48A
:1005400080E098E20E94080510924A2810924B28F9
:10055000BE016F5F7F4F86E89AE40E94B40081116C
:1005600096C066E87AE480E098E20E9408050E945E
:10057000EC0080934A2890934B280E942301BE01EF
:100580006F5F7F4F8BE89AE40E94B40081110EC028
:100590006BE87AE480E098E20E94080580E00E941F
:1005A0004E02C12CD12C00E010E013C060E97AE4C7
:1005B0001BC1070D111D80914A2890914B280817E7
:1005C000190709F048C065E97AE480E098E20E94E2
:1005D000080580914A2890914B2808171907F0F5D3
:1005E000F12C80E098E20E949C048823D1F380E003
:1005F00098E20E948C04EF2DF0E0E65FF74D8083D7
:10060000F394EFEFCE1ADE0AF0E4FF1639F0809192
:100610004A2890914B28C816D90619F7C8019F702F
:10062000892B19F4C8010E9400028AE0A82E88E2F2
:10063000B82E712CC8018A5098424C01C4018A0D11
:100640009B1D7F1409F4B5CFF50161915F010E94F4
:10065000C4017394F3CF61E87AE4B7CF6AE97AE42E
:1006600080E098E20E94080581E00E944E0200E0CE
:1006700010E0C8010E949B01682F80E098E20E9470
:10068000BF040F5F1F4F0031110599F770C06FE96C
:100690007AE4AAC064EA7AE4CE0101960E943305A6
:1006A000892BE1F461E87AE480E098E20E94080591
:1006B0001E82CE0106960E94CB00882361F069EA73
:1006C0007AE480E098E20E9408058E8180930928F0
:1006D0000E94B9018DC06EEA7AE486C063EB7AE4C9
:1006E000CE0101960E943305892BC9F461E87AE4B2
:1006F00080E098E20E94080500E010E0C8010E9436
:10070000000268EB7AE480E098E20E940805105F3E
:100710000115F0E41F0791F76DEB7AE465C062EC18
:100720007AE4CE0101960E943305892B19F561E820
:100730007AE480E098E20E9408050E94EC006C01D7
:100740000E94230181E00E944E0200E010E0C601F9
:10075000800F911F0E949B01682F80E098E20E9409
:10076000BF040F5F1F4F011521E0120781F7E092D0
:1007700006043EC067EC7AE4CE0101960E94330580
:10078000892B81F561E87AE480E098E20E9408050F
:1007900000E010E06CEC7AE480E098E20E9408054A
:1007A000680190E4C90ED11CC8010E949B01682F0A
:1007B00080E098E20E94BF040F5F1F4FC016D10671
:1007C00099F7BE016F5F7F4F81E89AE40E94B40001
:1007D00081111CC08601C11480E4D806D9F665E9F0
:1007E0007AE402C061ED7AE480E098E20E940805B4
:1007F00065E0CE0101960E94700080E098E20E94C0
:1008000087040E9430010E940C0185CE66ED7AE4D7
:10081000EBCF40E056E960E070E080E098E20C94B5
:1008200034041F920F920FB60F9211248F939F934F
:10083000EF93FF9380914D2890910008E82FF0E00E
:10084000E25BF74D90838F5F803419F080934D28E1
:1008500002C010924D28FF91EF919F918F910F90C0
:100860000FBE0F901F901895FC014083518383E0C9
:100870008283148215821682108617820895CF9380
:10088000DF93EC01F89428813981C901A0E0B0E040
:100890009C01AD0184E0220F331F441F551F8A9530
:1008A000D1F7DA01C901B695A79597958795BC014F
:1008B000CD01705C844B934B0E940B05E0E0F8E0A7
:1008C000208731878D8140E1849F900111249C8194
:1008D00048E0949FC0011124822B9A81892B878341
:1008E000A0E0B4E081E011968C93119792E012960B
:1008F0009C9390EC968390E895838E8310924C287D
:1009000010924D28789480E0DF91CF910895109255
:100910004C2810924D28089590914C28E92FF0E032
:10092000E25BF74D80819F5F903419F090934C28E3
:10093000089510924C28089581E020914D289091BF
:100940004C28291301C080E00895E0914C28809143
:100950004D288E1791F0F0E0E25BF74D8081FB01AE
:10096000808380914C288F5F803419F080934C28CD
:1009700002C010924C2881E0089580E00895809193
:10098000040885FFFCCF6093020887EA91E601978F
:10099000F1F700C0000080E00895EF92FF920F93FE
:1009A0001F93CF93DF93FB012081222339F1E42EA3
:1009B0008B01EC01F12CF801EF0DF11D6081CE01EE
:1009C0000E94BF04F394F801EF0DF11D80818111A5
:1009D000F2CFEE2059F08885882321F06DE0CE011A
:1009E0000E94BF046AE0CE010E94BF048F81882369
:1009F00039F060E0CE010E94BF0402C086E001C071
:100A000080E0DF91CF911F910F91FF90EF900895BB
:100A100040E00C94CD04A1E21A2EAA1BBB1BFD01E1
:100A20000DC0AA1FBB1FEE1FFF1FA217B307E407CD
:100A3000F50720F0A21BB30BE40BF50B661F771F25
:100A4000881F991F1A9469F7609570958095909505
:100A50009B01AC01BD01CF010895EE0FFF1F059072
:100A6000F491E02D0994FB01DC018D910190801936
:0C0A70000110D9F3990B0895F894FFCF02
:100A7C004255524E0041434B4E0053495A45005784
:100A8C00464C53004542303100454F4454005652B9
:100A9C00465900534552520042414E4B0042534579
:100AAC0054002A45525200434C524600534543547D
:100ABC0000444F4E4500524541440043484B5200C0
:0F0ACC0050434B470045434D44004543303100F4
:00000001FF
