:100000000C9450000C9465000C9465000C946500F1
:100010000C9465000C9465000C9465000C946500CC
:100020000C9465000C9465000C9465000C946500BC
:100030000C9465000C9465000C9465000C946500AC
:100040000C9465000C9465000C9465000C9465009C
:100050000C9465000C9465000C9465000C9465008C
:100060000C9465000C9465000C9465000C9465007C
:100070000C9465000C9465000C9465000C9465006C
:100080000C9465000C9465000C9465000C9465005C
:100090000C9465000C9465000C9465000C9465004C
:1000A00011241FBECFEFCDBFDFE3DEBF18E2A0E01B
:1000B000B8E2ECE8F1E402C005900D92A230B1077D
:1000C000D9F70E9467000C94C4000C94000088EDDE
:1000D00084BF1092610088E08093300480933104E3
:1000E00080933204809333048093340480933504E6
:1000F000809356048093570490E190930204809378
:1001000014042CE02093820480939204809393043F
:1001100010926004109200041092A00490930604C0
:10012000909301042FE33DE083E021503040804074
:10013000E1F700C0000090930504909302048091C1
:100140000028909101282FEF3091880433FDFCCFD7
:100150003091880432FDF8CF3091A804E091080472
:10016000F0E0F32BE80FF91FE491E093640420938F
:1001700060043091880433FD04C03091880432FF5C
:0C018000F8CF10926004E0CFF894FFCF9D
:10018C000000000000000000000000000000000063
:10019C000000000000000000000000000000000053
:1001AC000000000000000000000000000000000043
:1001BC000000000000000000000000000000000033
:02418C008C4164
:00000001FF
