:100000000C9450000C946D000C946D000C946D00D9
:100010000C946D000C946D000C946D000C946D00AC
:100020000C946D000C946D000C946D000C946D009C
:100030000C946D000C946D000C946D000C946D008C
:100040000C946D000C946D000C946D000C946D007C
:100050000C946D000C946D000C946D000C946D006C
:100060000C946D000C946D000C946D000C946D005C
:100070000C946D000C946D000C946D000C946D004C
:100080000C946D000C946D000C946D000C946F003A
:100090000C946D000C946D000C946D000C946D002C
:1000A00011241FBECFEFCDBFDFE3DEBF18E2A0E01B
:1000B000B8E2ECE9F1E802C005900D92A230B10778
:1000C000D9F728E2A2E0B8E201C01D92A330B2073E
:1000D000E1F70E9485000C94CC000C9400001F9264
:1000E0000F920FB60F9211248F938091890482FF93
:1000F00006C084E08093890481E0809302288F9178
:100100000F900FBE0F901F90189588ED84BF10922E
:10011000610088E08093300480933104809332043E
:100120008093330480933404809335048093560481
:10013000809357048CE0809382048BE08093920438
:1001400087E080938104809386041092600410926B
:1001500000041092A0048091022820910028309180
:100160000128811101C0FFCF9091A804809108045B
:10017000E82FF0E0F92BEE0FFF1FE20FF31FE491E1
:10018000E09364048FEF8093600480918804882357
:0C019000E1F310926004E7CFF894FFCF79
:10019C000000000000000000000000000000000053
:1001AC000000000000000000000000000000000043
:1001BC000000000000000000000000000000000033
:1001CC000000000000000000000000000000000023
:02819C009C4104
:00000001FF
