:100000000C9451000C946E000C946E000C946E00D5
:100010000C946E000C946E000C946E000C946E00A8
:100020000C946E000C946E000C946E000C946E0098
:100030000C946E000C946E000C946E000C946E0088
:100040000C946E000C940C030C946E000C946E00D7
:100050000C946E000C946E000C946E000C946E0068
:100060000C946E000C946E000C946E000C946E0058
:100070000C946E000C946E000C946E000C946E0048
:100080000C946E000C946E000C946E000C946E0038
:100090000C946E000C946E000C946E000C946E0028
:1000A000040311241FBECFEFCDBFDFE3DEBF28E284
:1000B000A0E0B8E201C01D92AD38B207E1F710E050
:1000C000C1E5D0E004C02197FE010E941C04C035A8
:1000D000D107C9F70E94AF010C942B040C940000C7
:1000E000FC019E2F981B961708F008951192F9CFE6
:1000F00010924004109280041092A00408958FE39F
:10010000809340048093A0048FE08093800408953E
:10011000E0E0F4E08CEF818385830895EF92FF9215
:100120001F93CF93DF930F92CDB7DEB77C0164E0CE
:100130000E947000198210E0BE016F5F7F4F80E067
:1001400098E20E9495038115B9F389818A3071F490
:10015000111571F0F701E10FF11D1082812F0F9041
:10016000DF91CF911F91FF90EF9008958D3021F393
:10017000F701E10FF11D80831F5F1430E9F6EECF28
:100180000F931F93CF93DF938C01D62FC72F862F0A
:10019000972F0E948E00B8018D2F9C2F0E94220461
:1001A0009C0181E0232B09F480E0DF91CF911F9126
:1001B0000F910895CF9380E098E20E948C038115FF
:1001C000D1F380E098E20E947D03C82F80E098E29E
:1001D0000E948C038115D1F380E098E20E947D0398
:1001E0002C2F30E0322F2227820F932F911DCF9199
:1001F00008959C018F7380934404C90126E096956D
:1002000087952A95E1F78F738093A404832F8295B5
:100210008F70809384040895CF93C82F692F80E056
:1002200098E20E94B0036C2F80E098E2CF910C948A
:10023000B0031F93CF93DF93162FC0E6D4E02FEFC8
:1002400028830E94F9001C83E0E0F4E080E88683C4
:1002500095E89A95F1F70000858385E88A95F1F78E
:1002600000001882DF91CF911F910895EF92FF92C5
:100270000F931F93CF93DF937C01162FC0E0D4E040
:1002800000E20E836AEA85E595E50E94190165E5BD
:100290008AEA9AE20E94190160EA85E595E50E94E2
:1002A0001901612FC7010E9419010D83DF91CF91C0
:1002B0001F910F91FF90EF900895CB010E94F900DC
:1002C000E0E0F4E090E2968320E4268385E88A95D6
:1002D000F1F70000809168042583958395E89A954D
:1002E000F1F700000895FF920F931F93CF93DF93D0
:1002F000D82FC92F00E014E080E2F82EF801F68232
:100300006AEA85E595E50E94190165E58AEA9AE2BF
:100310000E94190160E885E595E50E9419016AEAE5
:1003200085E595E50E94190165E58AEA9AE20E9451
:10033000190160E38D2F9C2F0E941901FFE926E827
:1003400081E0F15020408040E1F700C00000F8015A
:10035000F582DF91CF911F910F91FF90089500D00A
:1003600000D0CDB7DEB788ED84BF1092610088E081
:10037000809330048093310480933204809333045B
:1003800080933404809335048093560480935704FB
:10039000109260040E9478008CEF8093020480E049
:1003A00098E20E94360322242A9439E0632E38E230
:1003B000732E4CEF342ECE0101960E948E0080E009
:1003C00098E20E9478030E9488000E947F0061E901
:1003D00078E4CE0101960E942204892B09F0CAC05C
:1003E0006AE578E480E098E20E94F70310924928D9
:1003F00010924A28BE016F5F7F4F8FE598E40E94FC
:10040000C0008111B4C06FE578E480E098E20E94FA
:10041000F7030E94DA008093492890934A280E94AB
:100420000C01BE016F5F7F4F84E698E40E94C0001C
:10043000811142C064E678E480E098E20E94F7030C
:1004400020926004C12CD12C00E010E0809149285A
:1004500090914A2808171907C8F163E778E480E00B
:1004600098E20E94F70310926004812C912C5401B1
:10047000C501B4010E945D01682F80E098E20E94EE
:10048000B0038FEF881A980AA80AB80AE0E18E161E
:100490009104A104B10461F764E0CE0101960E94C9
:1004A000700080E098E20E947803309202040E947B
:1004B0007800109260047FCF69E678E480E098E2EB
:1004C0000E94F703E9CF2FE3522E22C099E0A92E14
:1004D00098E2B92E512C80E098E20E948C0381159D
:1004E000D1F380E098E20E947D03F50181935F01E2
:1004F00044244394450CFFEFCF1ADF0A8FE35816CC
:1005000011F38091492890914A288C159D0569F531
:10051000C8019F70892B19F4C8010E94730189E0FA
:10052000A82E88E2B82E4801F50161915F01C4014F
:100530000E943601FFEF8F1A9F0A8A2D86198415B3
:1005400098F30F5F1F4F050D111D80914928909161
:100550004A286EE678E48017910711F06AE578E49E
:1005600080E098E20E94F70371CF542CB4CF68E783
:1005700078E4A4CF6DE778E4CE0101960E942204CE
:10058000892BC9F46AE578E480E098E20E94F703D9
:1005900000E010E0C8010E94730162E878E480E0A6
:1005A00098E20E94F703105F0115F0E41F0791F72E
:1005B00067E878E483CF6CE878E4CE0101960E9486
:1005C0002204892B09F078CF6AE578E480E098E28C
:1005D0000E94F7030E94DA007C010E940C0100E0F7
:1005E00010E0B701600F711F80E090E00E945D0194
:1005F000682F80E098E20E94B0030F5F1F4F011543
:1006000081E0180771F748CF40E056E960E070E0FC
:1006100080E098E20C942B032F932FB72F938F93A6
:100620009F93EF93FF9380914C28E82FF0E0209167
:10063000000891E0980F8F3309F490E0E35BF74DE9
:10064000208390934C28FF91EF919F918F912F9150
:100650002FBF2F911895FC014083518383E0828343
:10066000148215821682108617820895CF93DF9325
:10067000EC01F8942881398140E050E084E0220FB9
:10068000331F441F551F8A95D1F7DA01C901B6956A
:10069000A79597958795BC01CD01705C844B934BD2
:1006A0000E94FA03E0E0F8E0208731878C81880F10
:1006B000880F880F9D819295907F892B9A81892B35
:1006C0008783A0E0B4E081E011968C93119792E0CB
:1006D00012969C9390EC968390E895838E8310926B
:1006E0004B2810924C28789480E0DF91CF910895A8
:1006F00010924B2810924C28089590914B28E92F86
:10070000F0E0E35BF74D808121E0290F9F3309F48E
:1007100020E020934B28089581E020914C2890916F
:100720004B28291301C080E00895DB01E0914B289C
:1007300080914C288E1791F0F0E0E35BF74D8081BB
:100740008C9380914B2891E0980F8F3321F09093F8
:100750004B2881E0089510924B28FBCF80E008954C
:100760008091040885FFFCCF6093020887EA91E638
:100770000197F1F700C0000080E00895DF92EF924A
:10078000FF920F931F93CF93DF93EC017B01042F14
:10079000FB011081111549F1D12C612FCE010E946E
:1007A000B003D394F701ED0DF11D10811111F5CFB8
:1007B000011559F08885811521F06DE0CE010E9468
:1007C000B0036AE0CE010E94B0038F81811521F051
:1007D00060E0CE010E94B003812FDF91CF911F9185
:1007E0000F91FF90EF90DF90089516E0F5CF40E075
:1007F0000C94BE03A1E21A2EAA1BBB1BFD010DC067
:10080000AA1FBB1FEE1FFF1FA217B307E407F507C0
:1008100020F0A21BB30BE40BF50B661F771F881F9C
:10082000991F1A9469F760957095809590959B0132
:10083000AC01BD01CF010895EE0FFF1F0590F491AB
:10084000E02D0994FB01DC018D91019080190110CC
:0A085000D9F3990B0895F894FFCF37
:10085A0041434B4E0053495A450057464C53002AD0
:10086A0045525200454F445400565246590053458A
:10087A00525200434C5246005345435400444F4E93
:0C088A00450052454144004255524E00CA
:00000001FF
